:020000040800F2
:1000000078060020A9190008B1190008B3190008E2
:10001000B5190008B7190008B91900080000000058
:10002000000000000000000000000000BB190008F4
:10003000BD19000800000000BF190008ED0200080B
:10004000C3190008C3190008C3190008C319000820
:10005000C3190008C3190008C3190008C319000810
:10006000C3190008C3190008C3190008C319000800
:10007000C3190008C3190008C3190008C3190008F0
:10008000C3190008C3190008C3190008C3190008E0
:10009000C3190008C3190008C3190008C3190008D0
:1000A000C3190008C3190008C3190008C3190008C0
:1000B00089010008C319000800000000C3190008E6
:1000C000C31900080000000000000000C319000868
:1000D00000000000C3190008C31900080000000058
:1000E000C3190008C3190008C319000800F002F87A
:1000F00000F03AF80AA090E8000C82448344AAF188
:100100000107DA4501D100F02FF8AFF2090EBAE885
:100110000F0013F0010F18BFFB1A43F0010318473B
:10012000001B0000201B0000103A24BF78C878C1D3
:10013000FAD8520724BF30C830C144BF04680C60ED
:10014000704700000023002400250026103A28BF35
:1001500078C1FBD8520728BF30C148BF0B60704739
:100160001FB51FBD10B510BD01F000FD1146FFF712
:10017000F7FF00F01FF801F01EFD03B4FFF7F2FFD8
:1001800003BC01F025FD000080B54FF08040012147
:1001900001F0FAFB002808BF80BD40F26C00C2F2FB
:1001A00000000168013101604FF08040012101F041
:1001B000F7FB80BD84B040F26C0640F60004C2F24A
:1001C00000064FF00009C4F20104C6F8009000F0E8
:1001D00099F801200121012500F0C0FB6320019066
:1001E0004720029001A94FF0804000F01FFD4FF022
:1001F00080400121012201F03FF94FF080400121B0
:1002000001F024F91C20C0F200100090684600F0B4
:10021000C5F80420012100F095FB40F26808102089
:10022000C2F20008C1F20200C8F8000020464146B0
:1002300000F02EF90820012100F084FB4020C1F2DB
:100240000200C8F8000004F58060414600F020F983
:10025000052706E02046102100F094F93068C828F0
:1002600007DA3068B842F5DA2046102100F08CF940
:10027000F4E7012DC6F800900AD1C22F4FF0000517
:10028000B8BF0125C12F07F10107C8BFC327E8E7A1
:10029000072FA7F101074FF00005BCBF0125052777
:1002A000DFE700BF80B584B00120012100F056FBDC
:1002B000632001904720029001A94FF0804000F098
:1002C000B5FC4FF080400121012201F0D5F84FF03C
:1002D0008040012101F0BAF81C20C0F2001000900B
:1002E000684600F05BF804B080BD000040F270008A
:1002F000C2F200000168002908BF70470168013997
:100300000160704780B501F0F7FB40F20000C2F2D7
:10031000000000684DF68361C4F21B31A0FB0101AF
:100320004FF0FF3000EB91410020B0EB116F18BF90
:1003300080BD4EF21002CEF2000251604EF6235103
:10034000CEF20001F0230B7090600720106080BD9A
:1003500040F27001C2F20001086000BF0868002886
:10036000FCD1704770B140F27001C2F200014FF44D
:100370007A7202E0013808BF70470A600B68002BF0
:10038000FCD1F7E77047000040F080604EF60C515A
:1003900040F0FD70CEF200010860704710B5C178E2
:1003A00000294EF20011CEF200011AD04EF60C5286
:1003B000CEF200021268072323EA12220F23C2F1B1
:1003C000040C23FA02F24378847890F800E003FAF0
:1003D0000CF322401A43120101EB0E0383F80023B1
:1003E00000E080310078012300F01F0203FA02F2DE
:1003F000C0F3421041F8202010BD00BF4FF68072BC
:10040000C1F6FF72114008434EF60851CEF20001CA
:100410000860704700294EF61051CEF200010A68BC
:100420000CBF22EA00001043086070474EF2100132
:10043000CEF200010A68042822F0040208BF043248
:100440000A607047A0F18040A0F584304FEAB020E8
:10045000062888BF704710B541F6E031C0F60001AC
:1004600051F820400121204600F084FA2046002166
:1004700000F080FABDE81040704700BF80B5012051
:10048000012100F077FA0120002100F073FA80BD0D
:100490002DE9F047CA7802F00F0CD30644BF8B78E1
:1004A0004CEA030C09880B0625D082465AF8144BF7
:1004B00000F1100E00254FF001094FF00F08002742
:1004C00006E000BF1E600137082F05F1040511D0BA
:1004D00009FA07F60E42F6D008FA05F324EA0303F8
:1004E0000CFA05F41C43282A5346EBD0482AEAD1DB
:1004F0007346E7E70460B1F5807F38BFBDE8F08759
:10050000436800F1100E00F1140900254FF4807AC1
:100510004FF00F08002705E034600137082F05F180
:10052000040512D00AFA07F404EA0106A642F4D13F
:1005300008FA05F6B3430CFA05F63343282A4E466B
:10054000EAD0482AE9D17646E6E74360BDE8F0877D
:100550004FF6FF71C0F202410160704780680840A9
:1005600018BF0120704700BF806880B2704700BF8D
:10057000C068084018BF0120704700BFC06880B243
:10058000704700BF01617047416170471023002A26
:1005900008BF1423C1507047C160704701F5803215
:1005A00082618161826181698069704740F2000CDB
:1005B000C4F2010CDCF800304FF680721A4041EAB8
:1005C00000101043CCF80000704700BF1C21C4F29B
:1005D00020210860704700BFB0B50422C4F20102B8
:1005E000134602F1180E002848BF73461C6800F439
:1005F0004013B3F5401F1FFA80FC06D1156824F0A4
:10060000706325F07064146015E0C3020AD46FF0C3
:100610000F0303EA50430CFA03F324EA030343F005
:10062000706308E0C0F30343032505FA03F324EAEB
:10063000030343F070636FF00F0404EA5044002991
:100640000CFA04F518BF2B43002848BF724613600C
:10065000B0BD00BF10B50C22082402EA810201F0EF
:10066000FC01C4F201044FF00F0C51F804E00CFA45
:1006700002F32EEA03030B510B5990401843085123
:1006800010BD00BFDC21C4F22021086070470000CB
:1006900041F20000C4F202000168002241F00101B1
:1006A00001604168CFF6FF021140416001684FF6DA
:1006B000FF72CFF6F66211400160016821F48021DB
:1006C0000160416821F4FE0141604FF41F01816027
:1006D000704700BF41F20001C4F202010A68B0F5A0
:1006E000803F22F480320A600A6822F480220A6085
:1006F00005D0B0F5802F18BF70474FF4A0200A68CE
:1007000010430860704700BF81B041F20000C4F29E
:1007100002000021009100BF0168009A013200929E
:10072000009AB2F5A06F02D011F40031F4D0006845
:10073000C0F3404001B07047420941F20001012A74
:10074000C4F2020103D0022A14BF24312031096807
:1007500000F01F0021FA00F000F00100704700BF18
:1007600041F20001C4F202010A6822F0F80242EAF2
:10077000C0000860704700BF0021C4F24221086039
:10078000704700BF41F20402C4F20202136808433A
:1007900023F47C1318431060704700BF6021C4F23B
:1007A00042210860704700BF41F20401C4F2020117
:1007B0000A6822F0030210430860704741F2040007
:1007C000C4F20200006800F00C00704741F204011E
:1007D000C4F202010A6822F0F00210430860704778
:1007E00041F20401C4F202010A6822F4E0621043FB
:1007F0000860704741F20401C4F202010A6822F461
:10080000605242EAC0000860704700BF002941F210
:100810000901C4F202010A780CBF22EA0000104369
:1008200008707047D821C4F242210860704700BFA9
:1008300041F20401C4F202010A6822F4404210436A
:100840000860704741F22001C4F202010022012831
:100850000A700A7003D0042818BF7047052008707A
:10086000704700BF40F28041C4F2422108607047E7
:1008700041F22001C4F202010A6810430860704787
:1008800040F23C41C4F242210860704710B541F289
:100890000404C4F20204226802F00C02082A41F2A5
:1008A0000022C0F27A021CD12368D4F800C0C3F33E
:1008B000834E5FEACC330EF1020C06D440F60012F0
:1008C000C0F23D020CFB02F20BE023689B0302D452
:1008D0000CFB02F205E040F60012C0F23D020CFBF8
:1008E00002F20260226841F61043C2F30312C0F61E
:1008F00000039A5C0168D14041602268C2F3022281
:100900009A5C21FA02F282602268C2F3C2229A5CE7
:1009100041F6FC33D140C1602268C0F60003C2F347
:1009200081329A5CB1FBF2F1016110BD002941F204
:100930001401C4F202010A680CBF22EA000010434D
:1009400008607047002941F21801C4F202010A68E8
:100950000CBF22EA0000104308607047002941F2F2
:100960001C01C4F202010A680CBF22EA0000104315
:1009700008607047002941F20C01C4F202010A68C4
:100980000CBF22EA0000104308607047002941F2C2
:100990001001C4F202010A680CBF22EA00001043F1
:1009A0000860704740F24041C4F24221086070473D
:1009B0004C21C4F242210860704700BF41F2070198
:1009C000C4F202010870704741F22400C4F2020030
:1009D000016841F080710160704700BF41F2080179
:1009E000C4F202010968084018BF0120704700BF27
:1009F00041F20A01C4F202010870704780B541F665
:100A0000FF71C4F20001884228DD44F2FF31C4F2D4
:100A1000010188423FDD44F6FF31C4F20101884202
:100A20006EDD44F60041C4F20101884200F0B4805A
:100A300045F20001C4F20101884200F0B58045F2A0
:100A40000041C4F20101884218BF80BD4FF400107C
:100A50000121FFF78FFF4FF40010D9E040F6FF713E
:100A6000C4F20001884232DC40F2FF71C4F200019E
:100A7000884259DCB0F1804F00F09E8040F2004186
:100A8000C4F20001884240F0B58002200121FFF746
:100A90007DFF0220C5E043F2FF31C4F2010188422C
:100AA00054DC42F20001C4F20001884200F08A8066
:100AB00042F60041C4F20101884240F09B804FF4AD
:100AC00000600121FFF756FF4FF40060A0E041F203
:100AD000FF71C4F2000188424CDC41F20001C4F213
:100AE0000001884276D041F20041C4F20001884200
:100AF00040F0808020200121FFF748FF202090E077
:100B000044F20041C4F20101884269D044F6000178
:100B1000C4F2010188426DD14FF480200121FFF71A
:100B200029FF4FF4802073E040F60001C4F2000179
:100B3000884260D040F60041C4F20001884259D199
:100B400008200121FFF722FF08206AE043F200415C
:100B5000C4F20101884254D044F20001C4F2010100
:100B6000884247D14FF480300121FFF703FF4FF453
:100B700080304DE041F60001C4F2000188424BD0C4
:100B800041F60041C4F20001884233D180200121A6
:100B9000FFF7FCFE802044E04FF400200121FFF726
:100BA000E9FE4FF4002033E04FF480100121FFF7FD
:100BB000E1FE4FF480102BE001200121FFF7E6FE5B
:100BC00001202EE04FF480700121FFF7DFFE4FF48B
:100BD000807026E010200121FFF7D8FE102020E0D1
:100BE0004FF400300121FFF7C5FE4FF40030002123
:100BF000FFF7C0FE80BD04200121FFF7C7FE0420DF
:100C00000FE04FF400500121FFF7B4FE4FF4005005
:100C10000021FFF7AFFE80BD40200121FFF7B6FEA7
:100C200040200021FFF7B2FE80BD00BF40F6FF3339
:100C3000B0F800C0C4F2000398420FDCB0F1804F5E
:100C40001ED040F20043C4F20003984218D040F690
:100C50000003C4F20003984212D016E040F60043AD
:100C6000C4F2000398420BD043F20043C4F20103E4
:100C7000984205D042F60043C4F20103984204D1E1
:100C80004B882CF0700243EA020C41F2004240F41F
:100C90008063C4F20002934204D0CA882CF44073EB
:100CA00042EA030CA0F800C08A888285A0F1804245
:100CB000A2F596320B884FEAB222072A038507D89D
:100CC000012303FA02F212F0E50F1CBF097A018634
:100CD00001218182704700BFB0B5028C22F0010271
:100CE0000284038C8288B0F818C00C8923F00203B8
:100CF0002343A0F180444D88A4F59634B1F800E078
:100D00004FEAB424072C43EA050313D8012505FA5A
:100D100004F414F0E50F0DD04C8923F00C0324F0FB
:100D200004048D8823438C892B4322F44072CD899F
:100D300022432A432CF0730545EA0E058280058381
:100D4000C98881860384B0BDB0B5028C43F20044EB
:100D500022F010020284028C8588B0F818C00B893A
:100D600022F0200242EA03124B88C4F20104B1F8D7
:100D700000E0A04242EA031205D042F60043C4F26A
:100D80000103984212D14B896FF0400422F0C00257
:100D900004EA03138C881A4342EA04128C8925F46E
:100DA0004063CD8943EA840343EA85052CF4E64396
:100DB00043EA0E2385800383C98801870284B0BD7E
:100DC000B0B5028C43F2004422F480720284028C9B
:100DD0008588B0F81CC00B8922F4007242EA032215
:100DE0004B88C4F20104B1F800E0A04242EA0322B9
:100DF00005D042F60043C4F20103984212D14B8958
:100E000040F2FF441B0222F44062A3438C881A4341
:100E100042EA04228C8925F44053CD8943EA041325
:100E200043EA05152CF0730343EA0E0385808383A0
:100E3000C98881870284B0BD70B5028C43F2004638
:100E400022F480520284048C8288838BB1F800E003
:100E50000D89B1F802C0C4F20106B04205D042F6D5
:100E60000046C4F20106B04204D18E8922F48042C9
:100E700042EA861223F4E64343EA0E2324F40054A4
:100E80008280838344EA0534C98844EA0C32A0F89E
:100E90004010028470BD00BFF0B50A88082A29D02E
:100EA000042A52D0002A7BD14B88B1F804C0B1F893
:100EB00008E0028C40F6FF3622F00102028402466E
:100EC00032F8184F058CC4F20006B0424FF6FC769B
:100ED00000F38F80B0F1804F00F09E8040F2004719
:100EE000C4F20007B84200F0978040F60007C4F251
:100EF00000078EE04B88B1F804C0B1F808E0028C1E
:100F000040F6FF3722F480720284024632F81C4F0A
:100F1000058C6FF44056C4F20007B84206F514562B
:100F200000F38B80B0F1804F00F0998040F20047D1
:100F3000C4F20007B84200F0928040F60007C4F205
:100F40000007B84200F08B808EE04B88B1F804C0F7
:100F5000B1F808E0028C40F6FF3722F0100202845C
:100F6000024632F8184F058C6FF00306C4F20007F2
:100F7000B842A6F1AD0600F38880B0F1804F00F0D2
:100F8000968040F20047C4F20007B84200F08F801C
:100F900040F60007C4F20007B84200F088808AE0FB
:100FA0004B88B1F804C0B1F808E0028C40F6FF3677
:100FB00022F480520284024632F81C4F058CC4F29F
:100FC0000006B04246F6FF5600F38980B0F1804F2C
:100FD00000F0978040F20047C4F20007B84200F0EA
:100FE000908040F60007C4F20007B84200F0898004
:100FF0008AE040F60047C4F20007B8420CD042F63F
:101000000047C4F20107B84206D043F20047C4F2D9
:101010000107B84218BF083E35402B4324F0F304C3
:101020004CEA0E1743F00103274307830384C98862
:10103000038B23F00C0303837AE040F60047C4F2ED
:101040000007B8420BD043F20047C4F20107B84290
:1010500005D042F60047C4F20107B84204D14CF66D
:10106000FF761B0206F5345635402B4324F0F3047B
:101070004CEA0E1743F48073274387830384C9889F
:10108000838B23F00C03838352E040F60047C4F2C5
:101090000007B8420BD043F20047C4F20107B84240
:1010A00005D042F60047C4F20107B84203D14FF61B
:1010B000FC761B012D3E35402B4340F6FF452C406E
:1010C00044EA0E3743F0100347EA0C2707830384F2
:1010D000C988038B090223F44063038328E040F6A8
:1010E0000047C4F20007B8420BD043F20047C4F2F5
:1010F0000107B84205D042F60047C4F20107B842E2
:1011000002D14CF6FF761B0335402B4340F6FF45DA
:101110004FEA0E372C4047EA0C2743F4805327430D
:1011200087830384C988838B090223F44063838304
:10113000108808431080F0BD028B22F00C0202835D
:10114000028B114301837047028B22F440620283B9
:10115000028B42EA01210183704700BF828B22F09B
:101160000C028283828B114381837047828B22F42D
:1011700040628283828B42EA01218183704700BFF3
:101180002DE9F04F4F888E884FF0010BB7FA87F2A8
:10119000012E08BF4FF0020B0D885309B1F808C0AB
:1011A000028C4FF6FC7E4FF6FC7A4FEA430815B3EB
:1011B00022F010020284024640F6FF394FF6FC731B
:1011C00032F818EF048CC4F200094845A3F1AD03CE
:1011D0002EDCB0F1804F3DD0454640F20048C4F2CD
:1011E00000084045A84635D040F60005C4F2000589
:1011F000A8422FD032E022F001020284024640F6DB
:10120000FF3932F8184F058CC4F2000948457ADCE2
:10121000B0F1804F00F08B8040F20043C4F2000335
:10122000984200F0848040F60003C4F200037AE0A4
:1012300040F60045C4F20005A8420BD043F2004539
:10124000C4F20105A84205D042F60045C4F20105EA
:10125000A84203D14FF6FC733F012D3B234040F6DB
:10126000FF443B430EEA040747EA0C3743F0100300
:1012700047EA062707830384C988038B484523F47C
:1012800040630383038B43EA01230383038C23F02E
:1012900001030384058B048C0DDCB0F1804F20D05A
:1012A00040F20043C4F2000398421AD040F6000313
:1012B000C4F200030FE040F60043C4F2000398427A
:1012C0000FD042F60043C4F20103984209D043F222
:1012D0000043C4F2010398421CBF4FF6FC73A3F114
:1012E000080A04EA0A0343EA080325F0F3074BEA75
:1012F0000C1643F00103374307830384038B23F069
:101300000C0303836CE040F60043C4F200039842F0
:101310000DD042F60043C4F20103984207D043F2D5
:101320000043C4F20103984218BFAEF1080A05EA6F
:101330000A033B4324F0F30446EA0C1543F001038F
:101340002C4304830384C988038B484523F00C0392
:101350000383038BAEF1AD0643EA01030383038CE1
:1013600023F010030384048B058C0FDCB0F1804F55
:101370001ED040F20043C4F20003984218D040F659
:101380000003C4F20003984212D015E040F6004377
:10139000C4F2000398420BD043F20043C4F20103AD
:1013A000984205D042F60043C4F20103984203D1AB
:1013B0004FEA0818AEF12D0640F6FF4705EA06038E
:1013C000274043EA080347EA0C3743F0100347EA93
:1013D0000B2707830384038B090223F440630383F1
:1013E000108808431080BDE8F08F00BFB1F800C03E
:1013F0004B888A8843EA0C0343EA020CCB880A89AB
:1014000043EA0C031A434B8989891A431143A0F814
:101410004410704700220021CFF6FF720180C18086
:10142000C0F80220017270470021C16081604160F4
:101430000160704700210122016042600181704714
:10144000002181818160416001607047028800292C
:1014500018BF012122F0010211440180704700BF32
:10146000B0F84420002918BF01216FF3DF3242EAAF
:10147000C131A0F844107047002A82890CBF22EACB
:101480000101114381817047818270471143A0F8A7
:1014900048107047002A82890CBF22EA01011143DB
:1014A00081817047018921F007010181704700BFE8
:1014B000028922F0700211430181018941F0070184
:1014C00001817047028922F0700211430181704747
:1014D00070B5058C60294FF6FC7C1DD125F01005F8
:1014E000058440F6FF35B0F818E0048CC4F200051E
:1014F000A842ACF1AD0529DCB0F1804F38D040F204
:101500000046C4F20006B04232D040F60006C4F2F3
:101510000006B0422CD02EE025F00106068440F6ED
:10152000FF35B0F818E0048CC4F20005A8422FDCA7
:10153000B0F1804F40D040F20045C4F20005A8420F
:101540003AD040F60005C4F2000531E040F600460E
:10155000C4F20006B0420BD043F20046C4F20106CA
:10156000B04205D042F60046C4F20106B04202D1B4
:101570001201ACF12D0504EA0506324340F6FF46A0
:1015800042F010020EEA06041D034FF480731CE0C3
:1015900040F60045C4F20005A8420DD042F60045D1
:1015A000C4F20105A84207D043F20045C4F2010588
:1015B000A84218BFACF1080C04EA0C06324342F012
:1015C00001022EF0F3051C01012344EA0506334312
:1015D00003830284028922F0700211430181018990
:1015E00041F00701018170BDB0F808C011435FFAF6
:1015F0008CFC41EA032141EA0C010181018941F09F
:1016000077010181704700BFB0F808C011435FFA4D
:101610008CFC41EA032141EA0C010181704700BFC3
:10162000B0F808C011435FFA8CFC41EA032141EA9B
:101630000C010181018941F480410181704700BFA3
:1016400001858282704700BF028822F07002114338
:1016500001807047B0B5B0F808C0B0F818E0058C4C
:101660002CF0070421434FF6FC4404EA0E0425F055
:10167000220542EA031204F201142A430181048381
:101680000284B0BD028B22F07002114301837047C7
:10169000028B22F4E04242EA01210183704700BF3D
:1016A000828B22F07002114381837047828B22F477
:1016B000E04242EA01218183704700BF028800298D
:1016C00018BF012122F0800242EAC1110180704757
:1016D0008288002918BF012122F0040242EA810118
:1016E000818070478288002918BF012122F00802FA
:1016F00042EAC101818070478288002918BF012118
:1017000022F0010211448180704700BF028B22F059
:101710000802114301837047028B22F4006242EAFF
:1017200001210183704700BF828B22F00802114320
:1017300081837047828B22F4006242EA0121818317
:10174000704700BF028B22F00402114301837047EF
:10175000028B22F4806242EA01210183704700BFBC
:10176000828B22F00402114381837047828B22F422
:10177000806242EA01218183704700BF028B22F020
:101780008002114301837047028B6FF3DF3242EA1C
:1017900001210183704700BF828B22F08002114338
:1017A00081837047828B6FF3DF3242EA01218183AC
:1017B000704700BF028C22F002021143018470477F
:1017C000028C22F00802114301847047028C22F03F
:1017D000200242EA01110184704700BF028C22F00E
:1017E000800242EA01110184704700BF028C22F49A
:1017F000007242EA01210184704700BF028C22F48A
:10180000006242EA01210184704700BF028C22F489
:10181000005242EA01310184704700BF80B54FF0A9
:10182000010CB0F820E00CFA01F32EEA0303038464
:10183000038C02FA01F11943018480BD80B54FF099
:10184000040CB0F820E00CFA01F32EEA0303038441
:10185000038C02FA01F11943018480BD10B54FF0E9
:10186000010CB0F820E00CFA01F32EEA030C6FF043
:10187000080300F118041942A0F820C00AD0081F7C
:1018800080B24108635804EB500023F4E043120295
:10189000635007E04B0853F804C004EB51002CF0F0
:1018A00070011951016892B21143016010BD00BF6F
:1018B0000288002918BF012122F0020242EA4101F8
:1018C000018070470288002918BF012122F004021C
:1018D00042EA8101018070478288002918BF0121F6
:1018E00022F0800242EAC11181807047028822F012
:1018F000080202800288114301807047828822F02A
:10190000700282808288114381807047028922F0B0
:10191000070202810289114301817047028922F086
:1019200080020281028911430181704781847047DE
:10193000818570478186704701877047818770472E
:10194000A0F84010704700BF028822F44072028065
:101950000288114301807047808E7047008F704766
:10196000808F7047B0F84000704700BF808C704790
:10197000008D7047008A084018BF0120704700BFE3
:10198000C9430182704700BF028A80890A4000EA89
:10199000010018BF0122002818BF01201040704725
:1019A000C943018270470000094880470948004741
:1019B000FEE7FEE7FEE7FEE7FEE7FEE7FEE7FEE7FF
:1019C000FEE7FEE704480549054A064B704700005C
:1019D000E9190008ED0000087800002078060020D2
:1019E000780200207802002082B041F20400C4F2A4
:1019F000020050F8041C002241F0010140F8041CD0
:101A00000168CFF6FF021140016050F8041C4FF648
:101A1000FF72CFF6F662114040F8041C50F8041C27
:101A200021F4802140F8041C016821F4FE010160CA
:101A30004FF41F01416000210191009150F8041CF6
:101A400041F4803140F8041C50F8041C01F40031CA
:101A50000091019901310191009919B90199B1F5EC
:101A6000A06FF1D150F8041C890354BF002101215B
:101A700000910099012936D142F20001C4F202011D
:101A80000A6842F010020A600A6822F007020A603F
:101A90000A6842F002020A600168016001680160A0
:101AA000016841F480610160016821F47C110160EA
:101AB000016841F4E811016050F8041C41F08071A4
:101AC00040F8041C50F8041C8901FBD5016821F082
:101AD00003010160016841F002010160016801F049
:101AE0000C010829FAD14EF60850CEF200004FF052
:101AF0000061016002B0704741F20400C4F20200CC
:101B0000016801F00C01082941F20021C0F27A01BC
:101B100017D102680368C2F38342DB0302F10202B9
:101B200005D440F60011C0F23D01514309E00368BD
:101B30009B0301D4514304E040F60011C0F23D0183
:101B4000514340F20002C2F200021160006841F607
:101B50000041C0F30310C0F60001085C116821FACF
:101B600000F010607047704770477047754600F08E
:101B70002BF8AE4605006946534620F0070085461F
:101B800018B020B5FFF71EFFBDE820404FF000065B
:101B90004FF000074FF000084FF0000BAC46ACE8E8
:101BA000C009ACE8C009ACE8C009ACE8C00921F044
:101BB00007018D46704710B50446AFF300802046FC
:101BC000BDE81040FEF7D9BA004870470800002071
:101BD00001491820ABBEFEE7260002007047000056
:101BE00004000000080000001000000020000000B9
:101BF0004000000080000000000100000204060810
:101C000000000000000000000102030406070809AC
:101C10000000000001020304010203040607080992
:101C2000401C0008000000200800000028010008F7
:101C3000481C00080800002070060000440100084D
:081C400000A24A0400000000AC
:04000005080000ED02
:00000001FF
