:020000040800F2
:100000009806002095010008990100089B0100084E
:100010009D0100089F010008A101000800000000E8
:10002000000000000000000000000000A301000824
:10003000A501000800000000A7010008A9010008B0
:10004000AB010008AB010008AB010008AB010008E0
:10005000AB010008AB010008AB010008AB010008D0
:10006000AB010008AB010008AB010008AB010008C0
:10007000AB010008AB010008AB010008AB010008B0
:10008000AB010008AB010008AB010008AB010008A0
:10009000AB010008AB010008AB010008AB01000890
:1000A000AB010008AB010008AB010008AB01000880
:1000B000AB010008AB010008AB010008AB01000870
:1000C000AB010008AB010008AB010008AB01000860
:1000D000AB010008AB010008AB010008AB01000850
:1000E000AB010008AB010008AB01000800F002F80A
:1000F00000F03AF80AA090E8000C82448344AAF188
:100100000107DA4501D100F02FF8AFF2090EBAE885
:100110000F0013F0010F18BFFB1A43F0010318473B
:100120002825000048250000103A24BF78C878C16F
:10013000FAD8520724BF30C830C144BF04680C60ED
:10014000704700000023002400250026103A28BF35
:1001500078C1FBD8520728BF30C148BF0B60704739
:100160001FB51FBD10B510BD00F0E6FB1146FFF72F
:10017000F7FF00F02BF800F004FC03B4FFF7F2FFE8
:1001800003BC00F099FA000030BF72B662B680F38B
:100190000888704708480047FEE7FEE7FEE7FEE7ED
:1001A000FEE7FEE7FEE7FEE7FEE7FEE70348044959
:1001B000044A054B70470000ED000008980000203D
:1001C000980600209802002098020020092000F0E4
:1001D0001AFA482000F0BAF84FF4FA31482000F03B
:1001E00085FA99E04D48006801F026FE06464C4A23
:1001F0004C4B01F04DF9044601F018F947490860ED
:100200000846006801F018FE0446474A474B01F0D3
:10021000E7FC02D24648414908604048006801F0C6
:100220000BFE064601F070F880460022414B01F0BB
:10023000D9FB044601F0FAF88246012100F0C8FA21
:100240003648006801F0F8FD804601F0B5F8064632
:100250000022384B01F0C6FB044601F0E7F8824665
:10026000022100F0B5FA2D48006801F0E5FD804656
:1002700000F0F4FF064600222E4B01F0B3FB0446CB
:1002800001F0D4F88246032100F0A2FA2348016865
:10029000294801F055FF0446042100F099FA052190
:1002A000002000F095FA0621002000F091FA0721C5
:1002B000002000F08DFA0821002000F089FA0921C1
:1002C000002000F085FA0A21002000F081FA0A20BF
:1002D00000F0CDFA1949087000201949087012E0A1
:1002E00000BF1848008800F040000028F9D01648E8
:1002F00013490978405C1349091D088010480078AB
:10030000401C0F4908700E4800780C490978884253
:10031000E6DB322000F052F864E700000400002021
:100320009A9999999999B93F1F85EB51B81E09403F
:10033000C3F548C000407F400000C84201000020D3
:1003400000000020003801400C0000204FF0E021A8
:10035000096921F004014FF0E0221161C21700EB9E
:100360005272C2F3C702234B1A701946097801EB87
:100370004102C2EBC1114FF6FF7202EAC1011E4AEF
:100380001180704701461B4A12784A434FF0E02320
:100390005A6100229A6101221A6100BF4FF0E022E7
:1003A000106900F001021AB100F48032002AF5D081
:1003B00000224FF0E0231A619A61704701460E4A0D
:1003C00012884A434FF0E0235A6100229A610122C9
:1003D0001A6100BF4FF0E022106900F001021AB16B
:1003E00000F48032002AF5D000224FF0E0231A6199
:1003F0009A617047080000200A000020A34A0A40C2
:100400000243A34B1A6070470146072323EA010207
:1004100012029F4B1B1D18684FF6FF0318409D4B9F
:10042000184310439A4B1B1D186070472DE9F0418B
:100430000746884614461D462846FFF7E5FFC5F1E6
:10044000040007FA00F60F20284100EA08000643DE
:1004500006F00F06E21704EBD2625211920002F18D
:10046000E022D2F800212146E31704EBD3635B11AD
:10047000A4EB431C012303FA0CF31A432046E317B1
:1004800004EBD3635B119B0003F1E023C3F800216D
:100490008148005D40EA06107F490855BDE8F081BB
:1004A00070B504460B46CE1701EB9676C6F387006F
:1004B000CE1701EB9676B610A1EB8606B606350E82
:1004C000764B9B6943F00103744EB3614FEAB63338
:1004D00053F820300F26AE40B343714E46F820301B
:1004E000334653F8203004FA05F61E436C4B43F8AC
:1004F00020606C4B1B6801268E403343694E33608D
:1005000002F0010343B1674B0C331B6801268E4098
:100510003343644E0C36336002F0020343B1614B47
:1005200008331E6801238B401E435E4B08331E6058
:1005300070BD00B5002059490861C86014204861A9
:1005400000208861C8610846006840F0010008602A
:1005500008464068544908405049486008460068C9
:10056000524908404D4908600846006820F4802040
:1005700008600846406820F4FE004860002088605B
:1005800000214FF00060FFF739FF00BD10B5404873
:100590000830006840F004003D49083108603F48D9
:1005A000C06940F080503D49C8614148406840F40E
:1005B00080703F4948600846006840F004000860C9
:1005C0000846006840F002000860FFF7DDFD10BD3E
:1005D0003048001D2E49091D086070470146490634
:1005E0002E4A926942F001022C4B9A612C4A083A39
:1005F000526822F0E0622A4B083B5A601A46526861
:100600000A435A60704730B504460025FFF791FF52
:100610002248006840F480302049086000BF1F482D
:100620000068400C0028FAD04FF480601B494860F5
:10063000A01EC4B20846406840EA844048600846AC
:10064000406840F4803048601A48006840F032004A
:10065000184908601148006840F080700F49086030
:1006600000BF0E480068400E0028FAD00B484068D2
:1006700040F002000949486005E008484068C0F3BE
:10068000870505F00305022DF7D130BD80FFFF1F60
:1006900008ED00E00000FA0500E400E00010024070
:1006A00008000140000401400000FFF8FFFFF6FED3
:1006B0000070004000200240014600BF704700BFAC
:1006C000384A128802F04002002AF9D0C2B2354BF3
:1006D0001B1D1A8070473349091D088000BF31492E
:1006E000098801F040010029F9D070472DE9F05F39
:1006F00005460E46300101F00FFD81462A4905FBF3
:1007000001F001F009FD8246494601F023FC07464D
:10071000384601F0E1FC84B2204601F0FDFC83463E
:10072000394601F0D9FD82464FF0834101F008FDC2
:10073000814601F0D1FC80464FF6FF7000EA0414B8
:1007400004EB080084B21948806940F0040017499E
:1007500088610846806940F48040886114480068D8
:1007600020F47F60124908600846006840F40B607E
:1007700008600E48C06840F480400C49C8600846D4
:10078000C06820F48040C860064808300480001D1E
:10079000008842F20C01084302490C310880BDE890
:1007A000F09F00000038014040420F00001002405E
:1007B0000408014030B503461C788C545D78541C05
:1007C0000D559D78941C0D55DD78D41C0D5530BD0C
:1007D00013B50C460A2C00DC04B91CBD0B2C43D20B
:1007E000DFE804F042060C12181E242A30363C00C2
:1007F000012244496846FFF7DDFF35E00522414903
:100800006846FFF7D7FF2FE009223E496846FFF709
:10081000D1FF29E00D223B496846FFF7CBFF23E0DB
:10082000112238496846FFF7C5FF1DE015223549FA
:100830006846FFF7BFFF17E0192232496846FFF705
:10084000B9FF11E01D222F496846FFF7B3FF0BE007
:1008500021222C496846FFF7ADFF05E025222949F2
:100860006846FFF7A7FF00BF00BF00BFB5E701461E
:100870000A2900DC09B9002070472420214A1070A1
:100880000B293CD2DFE801F03B060B10151A1F24A0
:10089000292F350005201B4A50710620ECE709205E
:1008A000184A50720A20E7E70D20164A50730E20AE
:1008B000E2E71120134A50741220DDE71520114A97
:1008C00050751620D8E719200E4A50761A20D3E723
:1008D0001D200C4A50771E20CEE72120094A82F8BD
:1008E00021002220C8E72520064A82F8250026207C
:1008F000C2E72920034A82F829002A20BCE7002009
:10090000BAE700000C00002070477047704770473E
:10091000704710B500F008F8006810BD10B5044627
:1009200000F002F8046010BD004870473800002055
:1009300000487047380000207546FFF7F9FFAE46C3
:1009400005006946534620F00700854618B020B5DB
:10095000FFF72CFCBDE820404FF000064FF00007E9
:100960004FF000084FF0000B21F00701AC46ACE857
:10097000C009ACE8C009ACE8C009ACE8C0098D46C4
:1009800070470446AFF300802046FFF7F6FB4900AE
:1009900050EAC12018BF04204A0D18BF40F00100E2
:1009A00040F2FF72B2EB515F08BF40F00200012835
:1009B00008BF0520704700002DE9F74F144696B098
:1009C0000021C4E902111799089121F00045CA4994
:1009D0008D4206DC1799C4E9000119B00020BDE87A
:1009E000F08FC649DFF818A3A9423CDD0899C54E2F
:1009F0000029C54FC54A1799534619DD01F032F950
:100A0000554506D0C24AC34B01F02CF9C4E9000198
:100A10000AE04FF0D352BF4B01F024F932463B4677
:100A200001F020F9C4E9000119B00120BDE8F08F00
:100A300000F02EFD554506D0B54AB64B00F028FD16
:100A4000C4E900010AE04FF0D352B24B00F020FDA0
:100A500032463B4600F01CFDC4E9000119B04FF0DE
:100A6000FF30BDE8F08FAC49A942179978DB21F03F
:100A700000488346A94AAA4B414600F0B3FF002232
:100A8000A84B00F005FD00F017FF099000F043FFB0
:100A900006460F469D4A534600F0A4FF5A46434679
:100AA00001F0D4F880468A46994A9A4B3046394636
:100AB00000F098FF2A0D01250B924246534601F0A3
:100AC000C5F8032DC4E9000139D00B98C1F30A51D0
:100AD000401A05EB45111139814230DA9248C3467C
:100AE000784400EB0510CDF81CA00C90D0E9002351
:100AF0003046394600F076FFCDE9020102460B464A
:100B00005846079901F0AEF880468A4602460B46E1
:100B10005846079901F0A6F8DDE9022301F0A2F892
:100B200083460C9803913946D0E90223304600F001
:100B300059FF5A46039B01F095F86D1CBDE70898D4
:100B40000028A2BF099819B0BDE8F08F616881F054
:100B500000416160099819B04042BDE8F08FFFE79D
:100B6000C1F3130141F480110E911799C1F30A5199
:100B7000A1F2F532511102F01F08C8F120021292C1
:100B800000220C920D92694A7A4402EB810101F134
:100B9000140C0DA95FF00607DCF80020DCF8045007
:100BA00002FA08F3129AD1F800A025FA02F21A43C9
:100BB0000E9BA2FB0356A2FB00329A4415449A45B1
:100BC00034BF4FF0010B4FF0000B51F8043C05EB24
:100BD0000B0E7344954234BF012200221644BBF130
:100BE000000F02D0AB4202D903E0AB4201D2012296
:100BF00000E0002241F808A93244E1E801237F1E09
:100C0000ACF1040CC8D10898DDE90A6500F1005088
:100C1000800F11900898099F800000F07CFE8046AC
:100C20008A46384600F08EFE6FF01D0201F005FC8A
:100C300007463046059100F085FE6FF03D0201F059
:100C4000FCFBCDE90310284600F07CFE6FF05D024E
:100C500001F0F3FB064602460B460191DDE9031065
:100C600000F016FC3A46059B00F012FC4246534643
:100C700000F00EFC00200D4683464246534600F02D
:100C8000F1FF3A46059B00F0EDFFDDE9033200F08D
:100C9000E9FF3246019B00F0D9FFDFF89880244A33
:100CA000434600F09FFE06460F46234A234B584614
:100CB000294600F097FE32463B4600F0E9FB0F461E
:100CC00006464FF0A84243465846294600F08AFEA1
:100CD00032463B4600F0DCFB179A12F0004F04D07E
:100CE000119A81F0004152421192C4E90001119819
:100CF00019B0BDE8F08F0000FB21E93F7CD902402C
:100D0000FB21F93F7370032E8A19A33B0000405466
:100D10003163621A61B4D03DFB21394183C8C96D8A
:100D2000305FE43F0000E03F141A00009C1900000F
:100D3000182D4454FB21F93D3326A611460B113CD6
:100D40002DE9FF4D21F0004807460C46B8F1795FC8
:100D500008DA00F0B1FD002801BF0020324904B0DC
:100D6000BDE8F08D3A4623461046194600F03AFE9B
:100D7000054602462D480E460B460621784400F0F3
:100D80005DF82A46334600F02DFEDDE90223824657
:100D90008B463846214600F025FE04460F46524653
:100DA0005B462846314600F01DFE22463B4600F0D9
:100DB00059FF07468A464FF0FF322846314601F078
:100DC0003CFB1B4A90450ADA3A46534600F04AFF7C
:100DD00004B00022BDE8F04D134B00F037BF154AB8
:100DE0004245A8BFA8F500154FF00004B8BF124D4A
:100DF00022462B4600F036FF0646884622462B4602
:100E00000020094900F02EFF04460D463A4653469D
:100E10003046414600F026FF04B022462B46BDE88E
:100E2000F04D00F013BF00000000F03F4817000035
:100E30003333D33F0000E93F0000D23F2DE9F041BA
:100E40004F1E00EBC7010446D1E9000115461E46BE
:100E500037F006020DD02A46334600F0C3FD7F1E50
:100E600004EBC703D3E9002300F012FB37F00602BE
:100E7000F1D1022F25D0042F13D0062F18BFBDE8C3
:100E8000F0812A46334600F0ADFDD4E90A2300F094
:100E9000FFFA2A46334600F0A5FDD4E9082300F006
:100EA000F7FA2A46334600F09DFDD4E9062300F008
:100EB000EFFA2A46334600F095FDD4E9042300F00A
:100EC000E7FA2A46334600F08DFDD4E9022300F00C
:100ED000DFFA2A46334600F085FDD4E90023BDE859
:100EE000F04100F0D5BA00002DE9FF4D054621F094
:100EF000004084B00C46B0F1795F0BDA2846FFF76A
:100F000046FD042808BF00F0A1F9284608B0214694
:100F1000BDE8F08D2A460B46104600F063FD0646FC
:100F20000F462A46234600F05DFD804626488A4645
:100F300032463B4605217844FFF780FF83461098F0
:100F4000029160B3214A224B4046514600F04AFDCF
:100F5000CDE900015A4640465146029B00F042FD51
:100F600082468846DDE906014FF0FF3201F065FA5E
:100F70005246434600F076FE32463B4600F032FDD4
:100F8000DDE9062300F06EFEDDE9002300F06AFED5
:100F900008B02A462346BDE8F04D00F057BE0B4688
:100FA0005A463046394600F01DFD084A084B00F00D
:100FB0006FFA4246534600F015FD08B02A46234614
:100FC000BDE8F04D00F064BA86160000495555554D
:100FD0005555C5BF2DE9F04D044688B08F4821F026
:100FE0000047164698460D460691874206DA204687
:100FF000294600F061FC002800F0AC808848B84227
:101000001CDC06980028BCBF85F0004588F000482D
:10101000844A854B2046294600F018FE04460D46BA
:10102000324643468148824900F01CFE22462B4648
:1010300000F02EFA002604460D46B04622462B4606
:101040001046194600F0CEFC8B46824602460B46FF
:1010500000F0C8FCCDE90201024676480B460621A5
:101060007844FFF7EBFECDE9000173480621784490
:10107000DDE90223FFF7E2FE52465B4600F0B2FCD8
:10108000CDE9020152465B462046294600F0AAFC03
:10109000CDE904019DE80F0000F0FAF9DDE9042331
:1010A00000F0A0FC3246434600F0F2F952465B469F
:1010B00000F098FC3246434600F0EAF980460E46BE
:1010C000DDE904015D4A5E4B00F08CFC424633468C
:1010D00000F0DEF982468B4622462B4600F0D8F916
:1010E00080464F480E46B84210985BDC00F013FC77
:1010F000074642463346029100F0CAF9CDE90001A5
:10110000424633461046194600F06CFCDDE90023E8
:1011100000F07AFA52465B4600F0A4FD22462B46C8
:1011200000F094FD012201F088F93A46029B00F09C
:101130008DFD04460D460698022101EAA070C0F11B
:10114000010000F0E8FB08B022462B46BDE8F04D58
:1011500000F048BC1098401C384320430BD0109836
:10116000012812D008B022462B46BDE8F04D0020E1
:10117000344900F049BA08B025F000432246BDE8E2
:10118000F04D0020304900F03FBA20462946FFF7D5
:10119000FEFB042808BF00F059F8204608B0294695
:1011A000BDE8F08D012802BF404608B0BDE8F08DD3
:1011B00000270B463A462046294600F047FD524696
:1011C0005B4600F043FD04460D4642463346002090
:1011D0001C4900F019FA83463A46884633461046C1
:1011E00000F000FC0022184B00F052F906468A4637
:1011F00022462B463846414600F0F4FB3246534621
:1012000000F046F95A46434600F0ECFB08B03A4677
:101210004346BDE8F04D00F03BB900000000303E11
:101220002894E53F182D4454FB21E93F075C143313
:1012300026A6813C84150000A6150000635555556F
:101240005555D53F0000F0BF0000F03F024A002096
:10125000110701F0F2B8000001FDFFFF00B5284BB7
:1012600021F0004287B09A42DCBF0022134631DDF4
:10127000244B9A420DD168B94FF00100FFF74EFBA5
:10128000002207B01346104611465DF804EB00F04B
:10129000BBB906DB07B04FF001025DF804EB01F0CB
:1012A000CCB802AAFFF788FB10F0030104BF0DF1D0
:1012B000080C9CE80F000DD0012001290ED0022956
:1012C00014D00DF1080C00909CE80F00FFF70CFE05
:1012D00007B000BDFFF734FD07B000BD0DF1080CED
:1012E00000909CE80F00FFF7FFFD05E00DF1080CF2
:1012F0009CE80F00FFF724FD07B081F0004100BD1E
:10130000FB21E93F0000F07F00B5294B21F00042AE
:1013100087B09A4203DC00221346009233E0254B4B
:101320009A420DD168B94FF00100FFF7F7FA002299
:1013300007B01346104611465DF804EB00F064B99F
:1013400006DB07B04FF001025DF804EB01F075B861
:1013500002AAFFF731FB10F003014FF001000DD09E
:10136000012914D002291AD00DF1080C9CE80F00B5
:10137000FFF7E6FC07B081F0004100BD0DF1080C5D
:1013800000909CE80F00FFF7AFFD07B000BD0DF126
:10139000080C9CE80F00FFF7D3FC07B000BD0DF16F
:1013A000080C00909CE80F00FFF79EFDE2E70000AC
:1013B000FB21E93F0000F07F10B51A4B21F00042FD
:1013C000012486B09A4203DC00221346009424E0F4
:1013D000154B9A420DD168B94FF00100FFF79EFA04
:1013E000002206B01346BDE810401046114600F03A
:1013F0000BB906DB06B04FF00102BDE8104001F06A
:101400001CB802AAFFF7D8FA00F00100A4EB4000D4
:101410000DF1080C00909CE80F00FFF7DBFD06B013
:1014200010BD0000FB21E93F0000F07F21F00042E9
:10143000A2F16052B2F5801F01F0004328BFD2F143
:101440007F6C0BD95FEA001C43EAC20242EB50708A
:1014500018BF704728BF20F001007047B2F5801F09
:10146000BCBF184670474FEA410C1CF5001F02D262
:10147000084600F02CBF70B500F05EFB000000894C
:10148000FFF7F6BF4FF00040A0F580007047000066
:1014900010B591EA030F48BF83F0004300F1EA83DF
:1014A000841A71EB030C05D2121943EB0C03001BD9
:1014B00061EB0C01DFF824E14FEA1154A4EB135C5B
:1014C0001EEA430F18BF9EEA445F73D023EA0E035F
:1014D000DCF1200E21EA045143F4801332D322FAC6
:1014E0000CFE10EB0E0023FA0CFE41EB0E01CCF1CA
:1014F000200E03FA0EFE10EB0E0051F10001B1F5C3
:10150000801FCCF1200E32D201EB045112FA0EF200
:10151000BDE8104058BF7047401C38BF5FEA420228
:1015200018BF7047002814BF20F0010041F10001EE
:101530004FEA410313F5001F38BF7047A1F1C041C6
:1015400000F048BB012A43EB0302ACF1200CDCF1B4
:101550001F0E32BF4FF0000E23FA0CF310EB030006
:1015600041EB0451B4EB115FD0D0A1EB045101F574
:10157000801149085FEA300001EB04510ED350F1AD
:10158000000038BF12FA0EFE08D1BDE81040C9E7CE
:10159000401C38BF5FEA4202CAD1C3E7BDE8104031
:1015A0004FEA410313F5001F38BF7047A1F1C04156
:1015B00000F010BB9EEA445F08D011EA5E0FBDE860
:1015C000104004BF01F0004100207047BDE810400A
:1015D00070B500F0B1FA00BF64FBBE3E0000E0FF52
:1015E00002494FF0000000F0F6BE00BF0000F87F97
:1015F000491058BFC1F140415B1058BFC3F140438F
:101600008B42EFF3008070472DE9C04130B4DFF822
:10161000A0C23CEA111418BF3CEA131400F0EC809D
:1016200081EA03051CEA111444EAD57418BF1CEAC8
:10163000131500F0C780A4EB05044FF0004545EA00
:10164000C12145EAC32341EA505143EA525304F110
:101650007F74994204F500344FEAC0204FEAC22259
:1016600008BF904200F09C804FEA13650FF24016CD
:10167000765D4FEA134506FB05F7C7F1807706FB59
:1016800007F74FEAD737A7FB03687642C8F58038DB
:10169000A7FB06CE38BFA8F1010807FB08E64FF00C
:1016A000000EA6FB028CE6FB03CEDCF1000CCEF1B3
:1016B000004E38BFAEF1010EA6FB0C584FF00007EC
:1016C0004FF00005E6FB0E87A1FB08C6A0FB07CE86
:1016D00016EB0E0645F10005E1FB076515F1E04E3E
:1016E0007EBFA4F580345FEA46066D4116F180079F
:1016F00045F100054FEA17274FEA066647EA0567F6
:10170000A6F1DE46B6F1805F4FEA15251FD93846AF
:1017100024F0010C05EBC471BCF1FE6F01EB0C1160
:1017200002D8F0BCBDE8008124425CBF01F5801EF8
:101730009EEAC47F02D4F0BCBDE80081244238D4C4
:10174000F0BCA1F1C041BDE8004100F043BA4FEA4E
:10175000D22242EA43524FEAD323A7FB02864FEA42
:10176000D02040EA415007FB03661EEA0E0F4FEA05
:10177000D12105FB026658BFA6EB0056B6EB00561A
:101780004FEA520E4EEAC37E18EB0E0E56EB530E86
:10179000BDD518EB02085E417F1C55F10005B6E788
:1017A0004FF480154FF000074FF000064FF000088F
:1017B000ADE7F0BC4FF0000001F1C04101F0004185
:1017C000BDE8008111EA0C1F0CEA131500D00CE0F3
:1017D00013EA0C1F00F025804FF00000F0BC81EAF6
:1017E000030101F00041BDE80081F0BC81EA030182
:1017F000BDE8004100F0EEB9F0BCBDE8004170B5B5
:1018000000F09AF9097EFC3E00F007B881EA030176
:101810004FF0000001F00041704781EA030100F041
:10182000D9B9F0BC4FF000002249BDE80041704733
:10183000FFFDFBF9F7F5F4F2F0EEEDEBE9E8E6E495
:10184000E3E1E0DEDDDBDAD8D7D5D4D3D1D0CFCD1C
:10185000CCCBCAC8C7C6C5C4C2C1C0BFBEBDBCBB55
:10186000BAB9B8B7B6B5B4B3B2B1B0AFAEADACAB50
:10187000AAA9A8A8A7A6A5A4A3A3A2A1A09F9F9E2A
:101880009D9C9C9B9A9999989797969595949393DC
:10189000929191908F8F8E8E8D8C8C8B8B8A898973
:1018A00088888787868585848483838282818180F6
:1018B0000000FF070000F87F4FEA41034FEA53534F
:1018C000A3F58063D3F11E03C8BFD3F1210C0CDD57
:1018D0004FF0004242EAC12242EA505232FA03FC7F
:1018E0008CEAE17CACEBE1707047102BC4BF0020A8
:1018F000704703F5787CBCF1FF3F04D06FF00042E5
:1019000082EA2100704770B500F016F949922480F0
:1019100000207047F2E710F0004248BF4042B0FAA2
:1019200080F310FA03F10AD0C3F11D0303F58063BD
:101930004FEA415002EB035202EBD12170474FF0C6
:1019400000007047B0FA80F310FA03F10AD0C3F137
:101950001D0303F580634FEA41504FEA035202EB47
:10196000D12170474FF000007047000051EA030C8E
:1019700017D41CF5801F58BFBCF5801F00F10680EE
:10198000994218BF704708BF9042704707D711F5BA
:10199000801F58BF13F5801F19D4994270478942A0
:1019A00070471CF5801F08D5BCF5801FF7D58B420A
:1019B00018BF704708BF824270474FF4001C1CEBF1
:1019C000410F38BF1CEB430F01D28B42704770B5FB
:1019D00000F0B2F8922449004FF000514FF08053CC
:1019E000FFF706BEDFF848C170B51CEA111E1EBF26
:1019F0001CEA13159EEA0C0F95EA0C0F00F06F809D
:101A000081EA030423EA4C134EEAD47E21EA4C1106
:101A100041F4801143F48013AE44A1FB024CA0FBBF
:101A20000365AEF17F7E361955EB0C05A1FB034C27
:101A30004CF10003A0FB021C16EB0C06654153F1B0
:101A40000003094218BF46F0010613F4007F0BD1D2
:101A50004FEA03314FEA0530340341EA155140EAB9
:101A600016506FF003020AE04FEAC3214FEAC52087
:101A7000F40241EA555140EA56506FF0020202EB7F
:101A80002E4201EB025585EACE710AD05FEA440C82
:101A900018BF24F0004450F1000041F1000120EA99
:101AA000D47040F2FE7C624500D270BDA84214BFE3
:101AB0004FF080444FF04044002E08BF0024BEF198
:101AC000806FA8BFA1F1C041BDE8704080F2828064
:101AD0004FF0000001F1C04101F0004170479EEA63
:101AE0000C0F0CEA131518BF95EA0C0F06D04FF037
:101AF000000081EA030E0EF0004170BD00F01CF8FA
:101B00008900013E00F007B800F009B84FEA430C25
:101B10005FEA5C5C08D081EA030100F05BB84FEA41
:101B2000410C5FEA5C5CF6D14FF000000149704760
:101B30000000FF070000F87F0EF1020E2EF0030EEA
:101B40005EF8046B364205D4012A43EB030515F514
:101B5000001F12D8012841EB010C1CF5001F0CD806
:101B60000ED14FEAD17C15F5001F0CEB4C0C0CF19B
:101B7000020C08BF4CEBD37C04E04FF0080C01E0F2
:101B80004FEAD37C0CEB4C0526FA05F606F0070667
:101B9000B6F1040C06D20EEB860CBDE870404CF09A
:101BA000010C6047DFE80CF0090B02024FF0004126
:101BB0004FF00000A1F5002170BD19461046012824
:101BC00051EB010418BFD4F5001484BF002001F0CC
:101BD000004170BD0808A0F500114FEA31017047BF
:101BE00053EA010C17D41CF5801F58BFBCF5801FA9
:101BF00000F106808B4218BF704708BF82427047D1
:101C000007D713F5801F58BF11F5801F19D48B42D9
:101C100070479B4270471CF5801F08D5BCF5801F9C
:101C2000F7D5994218BF704708BF904270474FF4EC
:101C3000001C1CEB430F38BF1CEB410F01D2994233
:101C400070470FB40CBC03BCFFF7C1BE91EA030F91
:101C500010B581F000413FF523AC83F0004300F064
:101C600009B8000010B591EA030F48BF83F00043A4
:101C70003FF516AC841A71EB030C07D212198CF0E5
:101C8000004C43EB0C03001B61EB0C01DFF8A4E1FB
:101C90004FEA1154A4EB135C1EEA430F18BF9EEAEF
:101CA000445F00F0B08023EA6E03524221EA0451FF
:101CB000C3EB6E0338BF5B1EDCF1200E25D322FA86
:101CC0000CFE10EB0E0043FA0CFE41EB0E01CCF1C2
:101CD000200E03FA0EFE10EB0E0051F10001CCF1C4
:101CE000200E29D412FA0EF201EB0451BDE8104087
:101CF00058BF7047401C1CBFB2F1004F704700280E
:101D00000CBF491C20F00100704712EB020E43EBA0
:101D1000030218BF4FF0010E4EEA4202ACF1200C54
:101D2000DCF11E0E54D943FA0CFE10EB0E0051F1FB
:101D3000FF31CCF11E0ED5D50EF1010E12FA0EFEBA
:101D4000404141EB010101EB445C5FEA5C5C10D96E
:101D500010EBDE7001EB045138BFBEF1004FBDE85F
:101D6000104018BF704700280CBF491C20F001002C
:101D7000704730D24FEAD42C11F5001124F40064DE
:101D80001BD0B1FA81F20B3AA41AA41ED2F120039F
:101D9000914030FA03F31943904001EBCC71002CD1
:101DA00001EB0451BDE81040A8BF704701F1C041EC
:101DB0004FF0000001F000417047B0FA80F310FAD4
:101DC00003F100D110BDE41A173C4805C90AE4E745
:101DD00001EB045110BD491001EB0451BDE8104066
:101DE0004FEA300002E04FF0000170474A0008BFA0
:101DF0000042F8D0B2F5001F28BF704701F0004143
:101E00004FF0000070479EEA445F07D011EA5E0F72
:101E1000BDE8104004BF002100207047BDE810401D
:101E200070B5FFF789FE00BF40DFF63E83F000414A
:101E3000104670470000E0FF43004FEAD30C4FEA22
:101E40003C0C43401FBF40070CF1605113F0FE4FA4
:101E500070471CF0006F03D100200CF00041704768
:101E60000CF0004343EA507010B540EACC0000F09B
:101E7000E8F900BF000000924FEA0001FFF7AABE98
:101E80004FF000414FF00000A1F500217047000025
:101E900090EA010F48BF81F0004100F12E82421A02
:101EA0003CBF801A89184FEAD0524FF07F4C1CEA91
:101EB000410FA2EBD15318BF9CEA026F00F03B80A8
:101EC0004FF0004C4CEA00204CEA012121FA03FCBF
:101ED00010EB0C0C1ED202F1FF325FEA1C2040EB2B
:101EE000C25038BF70471CF07F0F4FEA400C18BF3C
:101EF000BCF17F4F38BF7047C3F12003994008BF42
:101F000020F00100BCF17F4F38BF7047A0F1C04006
:101F100000F0DDB94FEA3C00000A40EBC25028BF98
:101F20001CF0FF0F4FEA400CE6D018BFBCF17F4F0A
:101F300038BF7047EAE79CEA026F05D010EA5C0FF1
:101F400008BF00F00040704710B500F07AF900BFFC
:101F500064FBBE3E4FF47F0C1CEAD0121EBF1CEA8D
:101F6000D11392EA0C0F93EA0C0F00F0858090EAEF
:101F7000010F48BF42F4807240F4000C41F40000AD
:101F80002CF07F4120F07F4000B58142A2EB03029C
:101F90000FF2081CACEB504EC0F100009EF800E0C0
:101FA0004FEA4E0E00FB0EFC38BF49004FEA2C1CD6
:101FB00002F5FA020CFB0EF34FEACE1E4FEA112C8B
:101FC0004FEAC1210EEB635E42EB22420EFB0CFC9A
:101FD0004FEA1C5300FB03114FEA112C4FEA013169
:101FE0000EFB0CFC4FEADC4C00FB0C11C14228BF7D
:101FF00009184CEB03335DF804EB10EB410143EBA4
:10200000C250B2F57C0F38BF704729D512F0F00FDF
:102010001CBF00F1C04000F0004070470081828387
:102020008485868788898B8C8D8E8F9192939596E7
:1020300097999A9C9D9FA0A2A3A5A7A8AAACAEB071
:10204000B2B3B5B7B9BCBEC0C2C5C7C9CCCED1D476
:10205000D7D9DCDFE2E6E9ECF0F3F7FAFE000000A6
:102060004FEA400C0CF1807CBCF17E4F28BF7047DA
:10207000B0F1C04000F02BB990EA010F0CEAD11387
:1020800048BF42F48072624538BF634507D213F4FB
:102090007F0F16D080EA010000F00040704710B5B5
:1020A00000F0CFF8097EFC3E00F005B880EA0100A0
:1020B00000F00040704780EA010000F0004000F0AE
:1020C00006B912F47F0F04BF0248704780EA01008E
:1020D00000F0FDB80000C07FC10DD1F19E0206DB0B
:1020E0004FEA002343F0004323FA02F07047004216
:1020F00007D54FEA4001B1F1FE4F02D24FF0000088
:10210000704710B500F09DF8499224800020704778
:102110006FEA200070470000B0FA80F310FA03F273
:10212000C3F19D030AD0D90501EB1220530638BF35
:10213000704700F1010008BF20F001007047000067
:102140004FF47F0C1CEAD0121EBF1CEAD11392EA96
:102150000C0F93EA0C0F00F0478090EA010F48BF84
:1021600042F480724FF0004C4CEA00204CEA01210E
:1021700002EB0302A0FB0113A2F50002002918BF25
:1021800043F001035B0028BF4FEA330342EB2242D6
:102190005FEA132C4CEBC2502EBFBCEB436FB2F581
:1021A0007C0F70474FEA036CBCF1004F08BF20F072
:1021B0000100B2F57C0F38BF70470BD582F0FF02EB
:1021C00012F5803FC8BF704700F1C040D8BF00F093
:1021D0000040704700F5000C5FEA4C0C48BF7047A8
:1021E000B0F1C04000F073B890EA010F0CEAD113CF
:1021F00048BF42F48072624538BF634504D280EA2A
:10220000010000F00040704710B500F01AF800BF60
:102210008900013E00F007B800F009B85FEA410C00
:102220005FEA1C6C08D080EA010000F050B85FEA59
:10223000400C5FEA1C6CF6D14FF00040A0F5800026
:1022400070470EF1020E2EF0030E5EF8044B24428E
:1022500004D44FEA4102B2F17F4F11D84FEA400354
:10226000B3F17F4F0CD80ED14FEAD07CB2F17F4F43
:102270000CEB4C0C0CF1020C08BF4CEBD17C04E0D5
:102280004FF0080C01E04FEAD17C0CEB4C0324FA30
:1022900003F404F00704B4F1040C06D20EEB840C32
:1022A000BDE810404CF0010C6047DFE80CF0070877
:1022B00002024FF00040A0F5800010BD0846420029
:1022C00018BFD2F1807288BF00F0004010BDFF211E
:1022D00041EAD050C005704780F0004090EA010FFD
:1022E0007FF5DDAD81F0004100F007B890EA010F05
:1022F00048BF81F000413FF5D2AD421A04D882F0C8
:102300000042A0EB020011444FEAD0524FF07F4C44
:102310001CEA410FA2EBD15318BF9CEA026F4AD0CE
:102320004FF0004C4CEA00204CEA012121FA03FC5A
:10233000B0EB0C0C0FD412F0FE0F36D05FEA4C005D
:102340001DD5001240EBC25038BF70471CF03F0F44
:1023500018BF70470BE0A2F101025FEA1C2040EBBE
:10236000C25038BF70471CF07F0F18BF7047C3F1D1
:102370002003994014BF401E20F0010070478008E0
:102380004FEA122308BF7047B0FA80FCA2EB0C02A0
:10239000CCF1280C60FA0CF093EA122F04BF00EB8A
:1023A000C25070474FEAC3707047130A5FEADC10EF
:1023B00008BF7047F6E79CEA026F04D010EA5C0F92
:1023C00008BF0020704710B5FFF73BFF40DFF63E27
:1023D00081F0004070470CF00F03092B08BF082064
:1023E00000F059800A2B0BD0082B18BF704708BF8C
:1023F0001CF0400F0AD04FF000004FF00001704772
:102400001CF0400F18BF4FF0004070471CF0100F39
:1024100008D020F0704300F07F4242EAD3014FEA37
:102420004370704700F0604021F07F4242EA0002B2
:1024300001F07F4040EA727070474FF0FF0C4CF49F
:10244000E06C1CEA11531CBF9CEA030C9445C2BF0C
:10245000DA4201EB02517047002B0DD0BCF1000FA6
:102460000FD0002A01F00041A4BF41F0E04141F04B
:102470007F614FF00000704701F000414FF0000015
:10248000704750EA01334FF09B0C18BF4CF0806C42
:102490007FF4A6A870471CF4801F11D01CF4E02F15
:1024A00003D06FEACC31490070474FF04050EFF352
:1024B000008222F0704242EA000282F300887047F4
:1024C0004FF00000704700004C5555555555A53F3D
:1024D0007751C1166CC156BF9015CB19A001FA3EB9
:1024E000AD529C804F7E92BEC4B1B4BD9EEE213EE3
:1024F000D43888BEE9FAA8BD00004054FB21F93F5A
:102500003163621A61B4D03D0000601A61B4D03DFD
:102510007370032E8A19A33B0000002E8A19A33B77
:10252000C14920259A837B3900000000000000008B
:102530006E83F9A22915444ED15727FCC0DD34F52E
:10254000999562DB4190433CAB6351FE61C5BBDEB4
:102550003A6E24B7E0D24D42EA2E49061C92D109C8
:102560001CEB1DFE3EA729B1F53582E88444BB2E45
:1025700026709CE9417E5FB439D69139F439538392
:102580008B5F849C3B28F9BDFF97F81F0F9805DEF1
:102590008B112FEF1F6D0A5ACF7E366DB709CB27EF
:1025A000663F464F2DEA5F9EC7BA27757BF1E5EB84
:1025B000F739073DEA92528AB15FFB6B085D8D1FC8
:1025C000A6F810111111813FD561C119A0012ABFD0
:1025D0007DFEB157E31DC73EEB9C2B8AE6E55ABE54
:1025E0007CD5CF5A3AD9E53D7AFE10111111C13F81
:1025F00037D60684F464963F280356C9226D6D3F92
:102600000165F2F2D844433FA69237A0887E143F7A
:10261000735360DBCB75F3BEFE41B31BBAA1AB3F76
:1026200093846EE9E326823F1583E0FEC8DB573FC3
:1026300068108D1AF726303FE9A7F0320FB8123F25
:10264000D47ABF74702AFB3E682600080000002080
:102650000C00000028010008742600080C0000206F
:102660008C0600004401000800000000000000008B
:042670000000000066
:04000005080000ED02
:00000001FF
